{
  "transactions": [
    {
      "hash": "0x47ff048278a270bfc644cd91f47433debf8147f382234e6386f2605023487bea",
      "transactionType": "CALL",
      "contractName": null,
      "contractAddress": "0xc4c4156d8173a82dc080b05bf1483f5b4b6d2122",
      "function": "mintNft(string)",
      "arguments": [
        "\"ipfs://QmPP2EMAF1ask7NQYHuw3hfgUJjJDSQdbrnAhe8Fxp3b4G\""
      ],
      "transaction": {
        "from": "0x25571828c3f5cdc6f57d124dccd65d1be7ecaa2e",
        "to": "0xc4c4156d8173a82dc080b05bf1483f5b4b6d2122",
        "gas": "0x35b84",
        "value": "0x0",
        "input": "0xda86f4a900000000000000000000000000000000000000000000000000000000000000200000000000000000000000000000000000000000000000000000000000000035697066733a2f2f516d505032454d41463161736b374e515948757733686667554a6a4a4453516462726e41686538467870336234470000000000000000000000",
        "nonce": "0x241",
        "chainId": "0xaa36a7"
      },
      "additionalContracts": [],
      "isFixedGasLimit": false
    }
  ],
  "receipts": [
    {
      "status": "0x1",
      "cumulativeGasUsed": "0x3b9b3d",
      "logs": [
        {
          "address": "0xc4c4156d8173a82dc080b05bf1483f5b4b6d2122",
          "topics": [
            "0xddf252ad1be2c89b69c2b068fc378daa952ba7f163c4a11628f55a4df523b3ef",
            "0x0000000000000000000000000000000000000000000000000000000000000000",
            "0x00000000000000000000000025571828c3f5cdc6f57d124dccd65d1be7ecaa2e",
            "0x0000000000000000000000000000000000000000000000000000000000000000"
          ],
          "data": "0x",
          "blockHash": "0x8a959bbc347c9bebcdcfd882560c8fc7e07724d05201ea13eadfafc236ea2160",
          "blockNumber": "0x5f6cfe",
          "transactionHash": "0x47ff048278a270bfc644cd91f47433debf8147f382234e6386f2605023487bea",
          "transactionIndex": "0x29",
          "logIndex": "0x2a",
          "removed": false
        }
      ],
      "logsBloom": "0x00000000000000000000000000200000000008000000000000000000000000000000000000000000000000000000000000000000000000000000000000000000000000000000000000000008000000000000000000000000000000000000000000001000020000000000000000000800000000000000000000000010000000000000000000000000000000000000000000000000000000000000000000000004000000000000000000000000000000000000000000000000000000000040000000000002000000100000000000000000000000000000000000000000000020000000000000000000000000000000000000000000000000000000000000000000",
      "type": "0x2",
      "transactionHash": "0x47ff048278a270bfc644cd91f47433debf8147f382234e6386f2605023487bea",
      "transactionIndex": "0x29",
      "blockHash": "0x8a959bbc347c9bebcdcfd882560c8fc7e07724d05201ea13eadfafc236ea2160",
      "blockNumber": "0x5f6cfe",
      "gasUsed": "0x26e47",
      "effectiveGasPrice": "0x100e98305",
      "from": "0x25571828c3f5cdc6f57d124dccd65d1be7ecaa2e",
      "to": "0xc4c4156d8173a82dc080b05bf1483f5b4b6d2122",
      "contractAddress": null
    }
  ],
  "libraries": [],
  "pending": [],
  "returns": {},
  "timestamp": 1720223089,
  "chain": 11155111,
  "commit": "654f087"
}